{
  "abi": [
    {
      "type": "constructor",
      "inputs": [],
      "stateMutability": "nonpayable"
    },
    {
      "type": "function",
      "name": "chgOwner",
      "inputs": [
        {
          "name": "idx",
          "type": "uint256",
          "internalType": "uint256"
        },
        {
          "name": "_newOwner",
          "type": "address",
          "internalType": "address"
        }
      ],
      "outputs": [],
      "stateMutability": "nonpayable"
    },
    {
      "type": "function",
      "name": "execute",
      "inputs": [
        {
          "name": "_emailKey",
          "type": "uint256",
          "internalType": "uint256"
        },
        {
          "name": "data",
          "type": "bytes",
          "internalType": "bytes"
        }
      ],
      "outputs": [],
      "stateMutability": "payable"
    },
    {
      "type": "function",
      "name": "newAccount",
      "inputs": [
        {
          "name": "_emailKey",
          "type": "uint256",
          "internalType": "uint256"
        },
        {
          "name": "_ownerAddr",
          "type": "address",
          "internalType": "address"
        }
      ],
      "outputs": [],
      "stateMutability": "nonpayable"
    },
    {
      "type": "function",
      "name": "owners",
      "inputs": [
        {
          "name": "",
          "type": "uint256",
          "internalType": "uint256"
        }
      ],
      "outputs": [
        {
          "name": "",
          "type": "address",
          "internalType": "address"
        }
      ],
      "stateMutability": "view"
    },
    {
      "type": "function",
      "name": "queryAccount",
      "inputs": [
        {
          "name": "_emailKey",
          "type": "uint256",
          "internalType": "uint256"
        }
      ],
      "outputs": [
        {
          "name": "",
          "type": "address",
          "internalType": "address"
        }
      ],
      "stateMutability": "view"
    },
    {
      "type": "error",
      "name": "AddressEmptyCode",
      "inputs": [
        {
          "name": "target",
          "type": "address",
          "internalType": "address"
        }
      ]
    },
    {
      "type": "error",
      "name": "AddressInsufficientBalance",
      "inputs": [
        {
          "name": "account",
          "type": "address",
          "internalType": "address"
        }
      ]
    },
    {
      "type": "error",
      "name": "FailedInnerCall",
      "inputs": []
    }
  ],
  "bytecode": {
    "object": "0x60808060405234602757600180546001600160a01b03191633179055611b14908161002d8239f35b600080fdfe608060408181526004918236101561001657600080fd5b600090813560e01c908163025e7c271461042f575080632a4252ce146103a457806359efcb151461022b578063a7b5ab9c146100c35763e31a20ac1461005b57600080fd5b346100c05760203660031901126100c057805b83811061009f575b9261008481602095106104e1565b3581528083528190205490516001600160a01b039091168152f35b60018101546001600160a01b031633146100bb5760010161006e565b610076565b80fd5b50919034610227576100d436610462565b845b84808210610205575b6100e991106104e1565b8185526020859052828520546001600160a01b03949085166101d35783516115609081810167ffffffffffffffff92828210848311176101c05790829161057f8339039088f080156101b257861695863b156101bc578551630d00929760e01b81529316828401528683602481838a5af180156101b25761018a575b5050508352826020528220906bffffffffffffffffffffffff60a01b82541617905580f35b829693961161019f5750825292388080610165565b634e487b7160e01b835260419052602482fd5b85513d89823e3d90fd5b8780fd5b634e487b7160e01b8a526041855260248afd5b606490602085519162461bcd60e51b8352820152600c60248201526b75736572206578697374732160a01b6044820152fd5b60018201546001600160a01b0316331461022257506001016100d6565b6100df565b8280fd5b509181600319360112610227578035916024359167ffffffffffffffff83116103a057366023840112156103a05782810135610266816104c5565b916102738451938461048d565b8183528660209586850193366024828401011161022757806024899301863785010152865b8180821061037e575b6102ab91106104e1565b6005549560ff8716156102bc578780f35b60ff19968716600117600555808852878652848820546001600160a01b039290831615610348575061032b95949392889283928352828752858320541693519082855af1913d1561033e573d61031d610314826104c5565b9251928361048d565b81528681943d92013e61051b565b5060055416600555388080808080808780f35b506060925061051b565b855162461bcd60e51b8152908101879052601060248201526f75736572206e6f74206578697374732160801b6044820152606490fd5b60018201546001600160a01b0316331461039b5750600101610298565b6102a1565b8480fd5b50823461042b576103b436610462565b91835b81808210610409575b6103ca91106104e1565b808210156103f6575060010180546001600160a01b0319166001600160a01b0390921691909117905580f35b634e487b7160e01b845260329052602483fd5b60018201546001600160a01b0316331461042657506001016103b7565b6103c0565b5080fd5b905083346102275760203660031901126102275780359081101561022757600101546001600160a01b0316815260209150f35b604090600319011261048857600435906024356001600160a01b03811681036104885790565b600080fd5b90601f8019910116810190811067ffffffffffffffff8211176104af57604052565b634e487b7160e01b600052604160045260246000fd5b67ffffffffffffffff81116104af57601f01601f191660200190565b156104e857565b60405162461bcd60e51b815260206004820152600b60248201526a6f6e6c79206f776e65722160a81b6044820152606490fd5b90610542575080511561053057805190602001fd5b604051630a12f52160e11b8152600490fd5b81511580610575575b610553575090565b604051639996b31560e01b81526001600160a01b039091166004820152602490fd5b50803b1561054b56fe61016080604052346101545761001481610159565b6007815260208101661058d8dbdd5b9d60ca1b81526040519161003683610159565b6001835260208301603160f81b815261004e82610174565b9261012093845261005e85610333565b92610140938452519020938460e05251902091610100938385524660a0526040519360208501917f8b73c3c69bb8fe3d512ecc4cf759cc79239f7b179b0ffacaa9a75d522b39400f8352604086015260608501524660808501523060a085015260a0845260c084019380851060018060401b0386111761013e5760408590525190206080523060c052600380546001600160a01b0319163317905561109293846104ce853960805184610bd5015260a05184610ca1015260c05184610b9f015260e05184610c2401525183610c4a015251826106330152518161065d0152f35b634e487b7160e01b600052604160045260246000fd5b600080fd5b604081019081106001600160401b0382111761013e57604052565b8051602091908281101561020e575090601f8251116101af57808251920151908083106101a057501790565b82600019910360031b1b161790565b90604051809263305a27a960e01b82528060048301528251908160248401526000935b8285106101f5575050604492506000838284010152601f80199101168101030190fd5b84810182015186860160440152938101938593506101d2565b6001600160401b03811161013e576000928354926001938481811c91168015610329575b8382101461031557601f81116102e2575b5081601f841160011461027f57509282939183928694610274575b50501b916000199060031b1c191617905560ff90565b01519250388061025e565b919083601f1981168780528488209488905b888383106102c857505050106102af575b505050811b01905560ff90565b015160001960f88460031b161c191690553880806102a2565b858701518855909601959485019487935090810190610291565b85805284601f848820920160051c820191601f860160051c015b82811061030a575050610243565b8781550185906102fc565b634e487b7160e01b86526022600452602486fd5b90607f1690610232565b8051602090818110156103bc5750601f82511161035d57808251920151908083106101a057501790565b90604051809263305a27a960e01b82528060048301528251908160248401526000935b8285106103a3575050604492506000838284010152601f80199101168101030190fd5b8481018201518686016044015293810193859350610380565b9192916001600160401b03811161013e5760019182548381811c911680156104c3575b828210146104ad57601f8111610477575b5080601f831160011461042d575081929394600092610422575b5050600019600383901b1c191690821b17905560ff90565b01519050388061040a565b90601f198316958460005282600020926000905b88821061046057505083859697106102af57505050811b01905560ff90565b808785968294968601518155019501930190610441565b8360005283601f83600020920160051c820191601f850160051c015b8281106104a15750506103f0565b60008155018490610493565b634e487b7160e01b600052602260045260246000fd5b90607f16906103df56fe60406080815260048036101561001f575b5050361561001d57600080fd5b005b600090813560e01c80630d0092971461085b57806314bfd6d0146108245780633644e515146108005780634ffaede6146107735780637ecebe001461073b57806384b0196e1461061c5780638875690b1461048c57806391dde02614610378578063a35277331461026c5763f9beb27c1461009a5750610010565b60a0366003190112610268576100ae6108e4565b602435916044356001600160a01b0381811691829003610264576064359160843567ffffffffffffffff8111610260579161014c610155926101478b6100fa6101629736908b016109e1565b92610103610b1e565b6101106008548a11610a8d565b815190602082019260008051602061103d83398151915284528201528860608201526060815261013f81610955565b519020610cc7565b610eeb565b90939193610f27565b8060075416911614610aca565b60085547831161021d578380808086865af13d15610218573d610184816109c5565b90610191885192836109a3565b81528560203d92013e5b156101df575092516001600160a01b0390931683526020830152907ffd69c215b8b91dab5e96ff0bcbaf5dc372919948eea2003ae16481c036f816f890604090a180f35b606490602086519162461bcd60e51b835282015260136024820152723a3930b739b332b922aa24103330b4b632b21760691b6044820152fd5b61019b565b606490602086519162461bcd60e51b8352820152601a60248201527f4554482062616c616e6365206973206e6f7420656e6f756768210000000000006044820152fd5b8780fd5b8580fd5b5080fd5b50829034610374576080366003190112610374576102886108e4565b6102906108ff565b92604435936064359267ffffffffffffffff8411610370577f11e00644d91e0414f88ddcb68594075c612eb007693e4db71ed9c29eb28db2b5956103316102df60209761033a973691016109e1565b6102e7610b1e565b6102f46008548411610a8d565b855160008051602061103d8339815191528982019081526001600160a01b0396871682890152606080830186905282526101479161013f81610955565b90969196610f27565b61034d6007549584808816911614610aca565b6008551680926bffffffffffffffffffffffff60a01b161760075551908152a180f35b8680fd5b8280fd5b5082346103745760206104429261040b6103fd866103f461039836610a28565b6103ab9a9599939a989296919498610b1e565b6103b86008548611610a8d565b6101478d80518e81019160008051602061103d833981519152835260018060a01b03809b16908201528760608201526060815261013f81610955565b90929192610f27565b848060075416911614610aca565b600855875163095ea7b360e01b81526001600160a01b03909416908401908152602081019590955291968794859391849160400190565b0393165af19081156104835750610457575080f35b6104789060203d60201161047c575b61047081836109a3565b810190610b06565b5080f35b503d610466565b513d84823e3d90fd5b5091346102685761049c36610a28565b9594906104ab98949398610b1e565b6104b86008548211610a8d565b6105006103fd6103f488519961014760209b8c81019060008051602061103d833981519152825260018060a01b03809a168d8201528760608201526060815261013f81610955565b600855169183516370a0823160e01b815230828201528581602481875afa9081156106125787916105e5575b5087116105a257835163a9059cbb60e01b81526001600160a01b0390921690820190815260208101879052909291849184919082908890829060400103925af1908115610599575061057c578280f35b8161059292903d1061047c5761047081836109a3565b5081808280f35b513d85823e3d90fd5b835162461bcd60e51b8152908101859052601c60248201527f746f6b656e2062616c616e6365206973206e6f7420656e6f75676821000000006044820152606490fd5b90508581813d831161060b575b6105fc81836109a3565b8101031261037057513861052c565b503d6105f2565b85513d89823e3d90fd5b5082346103745782600319360112610374576106577f0000000000000000000000000000000000000000000000000000000000000000610ced565b926106817f0000000000000000000000000000000000000000000000000000000000000000610e12565b90825192602092602085019585871067ffffffffffffffff88111761072857509260206106de8388966106d1998b9996528686528151998a99600f60f81b8b5260e0868c015260e08b0190610915565b91898303908a0152610915565b924660608801523060808801528460a088015286840360c088015251928381520193925b82811061071157505050500390f35b835185528695509381019392810192600101610702565b634e487b7160e01b845260419052602483fd5b8284346102685760203660031901126102685760209181906001600160a01b036107636108e4565b1681526002845220549051908152f35b5091346102685780600319360112610268578235906107906108ff565b91610799610b1e565b848110156107ed5760030180546001600160a01b0319166001600160a01b039093169283179055519081527f963e0ab97ac513cd7805d0cb6b84a4e05011a7cf5bf65ef7874508646d5bff2d90602090a180f35b634e487b7160e01b845260328552602484fd5b82843461026857816003193601126102685760209061081d610b9c565b9051908152f35b5082903461037457602036600319011261037457803590811015610374576003015490516001600160a01b03909116815260209150f35b828434610268576020366003190112610268576108766108e4565b9061087f610b1e565b6007546001600160a01b0380821615610896578480f35b7fd15cf8df5e2d60ca581fa0aad07778c6cfbec8b2a1da625e52427b13b25dd122931680916bffffffffffffffffffffffff60a01b16176007558151908152336020820152a1818080808480f35b600435906001600160a01b03821682036108fa57565b600080fd5b602435906001600160a01b03821682036108fa57565b919082519283825260005b848110610941575050826000602080949584010152601f8019910116010190565b602081830181015184830182015201610920565b6080810190811067ffffffffffffffff82111761097157604052565b634e487b7160e01b600052604160045260246000fd5b6040810190811067ffffffffffffffff82111761097157604052565b90601f8019910116810190811067ffffffffffffffff82111761097157604052565b67ffffffffffffffff811161097157601f01601f191660200190565b81601f820112156108fa578035906109f8826109c5565b92610a0660405194856109a3565b828452602083830101116108fa57816000926020809301838601378301015290565b60c06003198201126108fa576001600160a01b0360043581811681036108fa579260243582811681036108fa57926044359260643590811681036108fa57916084359160a4359067ffffffffffffffff82116108fa57610a8a916004016109e1565b90565b15610a9457565b60405162461bcd60e51b815260206004820152600e60248201526d6e6f6e636520696e76616c69642160901b6044820152606490fd5b15610ad157565b60405162461bcd60e51b815260206004820152600d60248201526c7065726d6974206572726f722160981b6044820152606490fd5b908160209103126108fa575180151581036108fa5790565b60005b60048110610b7b575b600414610b3357565b6007546001600160a01b03163303610b4757565b60405162461bcd60e51b815260206004820152600c60248201526b6f6e6c792061646d696e732160a01b6044820152606490fd5b60038101546001600160a01b03163314610b9757600101610b21565b610b2a565b307f00000000000000000000000000000000000000000000000000000000000000006001600160a01b03161480610c9e575b15610bf7577f000000000000000000000000000000000000000000000000000000000000000090565b60405160208101907f8b73c3c69bb8fe3d512ecc4cf759cc79239f7b179b0ffacaa9a75d522b39400f82527f000000000000000000000000000000000000000000000000000000000000000060408201527f000000000000000000000000000000000000000000000000000000000000000060608201524660808201523060a082015260a0815260c0810181811067ffffffffffffffff8211176109715760405251902090565b507f00000000000000000000000000000000000000000000000000000000000000004614610bce565b604290610cd2610b9c565b906040519161190160f01b8352600283015260228201522090565b60ff8114610d2b5760ff811690601f8211610d195760405191610d0f83610987565b8252602082015290565b604051632cd44ac360e21b8152600490fd5b50604051600080549060018260011c9060018416938415610e08575b6020948584108114610df45783875286949392918115610dd45750600114610d78575b5050610a8a925003826109a3565b60008080527f290decd9548b62a8d60345a988386fc84ba6bc95484008f6362f93160ef3e56395935091905b818310610dbc575050610a8a93508201013880610d6a565b85548784018501529485019486945091830191610da4565b915050610a8a94925060ff191682840152151560051b8201013880610d6a565b634e487b7160e01b85526022600452602485fd5b91607f1691610d47565b60ff8114610e345760ff811690601f8211610d195760405191610d0f83610987565b506040516000600190600154918260011c9060018416938415610ee1575b6020948584108114610df45783875286949392918115610dd45750600114610e82575050610a8a925003826109a3565b9093915060016000527fb10e2d527612073b26eecdfd717e6a320cf44b4afac2b0732d9fcbe2b7fa0cf6936000915b818310610ec9575050610a8a93508201013880610d6a565b85548784018501529485019486945091830191610eb1565b91607f1691610e52565b8151919060418303610f1c57610f1592506020820151906060604084015193015160001a90610fac565b9192909190565b505060009160029190565b6004811015610f965780610f39575050565b60018103610f535760405163f645eedf60e01b8152600490fd5b60028103610f745760405163fce698f760e01b815260048101839052602490fd5b600314610f7e5750565b602490604051906335e2f38360e21b82526004820152fd5b634e487b7160e01b600052602160045260246000fd5b91907f7fffffffffffffffffffffffffffffff5d576e7357a4501ddfe92f46681b20a0841161103057926020929160ff608095604051948552168484015260408301526060820152600092839182805260015afa156110245780516001600160a01b0381161561101b57918190565b50809160019190565b604051903d90823e3d90fd5b5050506000916003919056fe51d0307b0d7a11a41270bd5325498ed0b29ae1c14b09b8e4cd0ebfa16c36d579a2646970667358221220829b4fe4cb2cea5d4e31c83ba7d2a4e745d699a8ca4f277705c7779f21cd268e64736f6c63430008190033a2646970667358221220ab727e698556028019e57082c192e9668ac1ccf1a2692fbb486117577bf7d36664736f6c63430008190033",
    "linkReferences": {}
  },
  "methodIdentifiers": {
    "chgOwner(uint256,address)": "2a4252ce",
    "execute(uint256,bytes)": "59efcb15",
    "newAccount(uint256,address)": "a7b5ab9c",
    "owners(uint256)": "025e7c27",
    "queryAccount(uint256)": "e31a20ac"
  },
  "id": 33
}