{"abi":[{"type":"constructor","inputs":[],"stateMutability":"nonpayable"},{"type":"function","name":"accountImpl","inputs":[],"outputs":[{"name":"","type":"address","internalType":"address"}],"stateMutability":"view"},{"type":"function","name":"execute","inputs":[{"name":"_ownerId","type":"uint256","internalType":"uint256"},{"name":"data","type":"bytes","internalType":"bytes"}],"outputs":[],"stateMutability":"payable"},{"type":"function","name":"initPoint","inputs":[{"name":"pointAddress","type":"address","internalType":"address"}],"outputs":[],"stateMutability":"nonpayable"},{"type":"function","name":"newAccount","inputs":[{"name":"_ownerId","type":"uint256","internalType":"uint256"},{"name":"_passwdAddr","type":"address","internalType":"address"},{"name":"_questionNos","type":"string","internalType":"string"}],"outputs":[],"stateMutability":"nonpayable"},{"type":"function","name":"owners","inputs":[{"name":"","type":"uint256","internalType":"uint256"}],"outputs":[{"name":"","type":"address","internalType":"address"}],"stateMutability":"view"},{"type":"function","name":"queryAccount","inputs":[{"name":"_ownerId","type":"uint256","internalType":"uint256"}],"outputs":[{"name":"","type":"address","internalType":"address"}],"stateMutability":"view"},{"type":"error","name":"AddressEmptyCode","inputs":[{"name":"target","type":"address","internalType":"address"}]},{"type":"error","name":"AddressInsufficientBalance","inputs":[{"name":"account","type":"address","internalType":"address"}]},{"type":"error","name":"ERC1167FailedCreateClone","inputs":[]},{"type":"error","name":"FailedInnerCall","inputs":[]}],"bytecode":{"object":"0x60806040908082523461011b5760018060a01b031933816001541617600155338160025416176002553381600354161760035533816004541617600455611a3e908183019260018060401b03928185108486111761010557610837823980600094039084f080156100fb5760018060a01b031680916006541617600655803b156100f75790828092606486518096819363070a4d1d60e01b835261dead60048401528960248401528160448401525af180156100ed576100c8575b835161071690816101218239f35b82116100d9575081523880806100ba565b634e487b7160e01b81526041600452602490fd5b84513d84823e3d90fd5b8280fd5b84513d85823e3d90fd5b634e487b7160e01b600052604160045260246000fd5b600080fdfe608060408181526004918236101561001657600080fd5b600090813560e01c908163025e7c27146105a45750806334e3fac31461052857806359efcb15146103455780638804eb9f1461031c578063c4dab887146100ce5763e31a20ac1461006657600080fd5b346100cb5760203660031901126100cb57805b8381106100aa575b9261008f8160209510610643565b3581528083528190205490516001600160a01b039091168152f35b60018101546001600160a01b031633146100c657600101610079565b610081565b80fd5b5082346103185760603660031901126103185780359260249182356001600160a01b0381811691829003610313576044359667ffffffffffffffff80891161030f573660238a01121561030f578885013590811161030f573687828b01011161030f57875b858082106102f4575b6101469110610643565b818852876020528286892054166102c357600654608881901c62ffffff16763d602d80600a3d3981f3363d3d373d3d3d363d7300000017895260781b6effffffffffffffffffffffffffffff19166e5af43d82803e903d91602b57fd5bf3176020528282603760098bf5169384156102b3578899853b156102af5760648a92848b958b51968795869463070a4d1d60e01b86528d8601528d8286015282604486015201848401378181018301859052601f01601f1916810103018183885af180156102a55790889161028d575b5052602086905283862080546001600160a01b0319168317905560055416803b156102895785928360449268056bc75e2d63100000875198899687956340c10f1960e01b87528601528401525af190811561028057506102705750f35b610279906105db565b6100cb5780f35b513d84823e3d90fd5b8580fd5b610296906105db565b6102a1578689610213565b8680fd5b86513d8a823e3d90fd5b8980fd5b86516330be1a3d60e21b81528690fd5b855162461bcd60e51b8152602081870152600c818901526b75736572206578697374732160a01b6044820152606490fd5b84826001015416331461030a5750600101610133565b61013c565b8780fd5b600080fd5b5080fd5b50903461031857816003193601126103185760065490516001600160a01b039091168152602090f35b509080600319360112610318578235906024359367ffffffffffffffff8511610524573660238601121561052457848101359461038186610627565b9561038e84519788610605565b80875260209081880192366024838301011161030f578188926024859301863789010152855b83808210610502575b6103c79110610643565b6006549660ff8860a01c16156103db578680f35b60ff60a01b19978816600160a01b17600655858752868252848720546001600160a01b0393908416156104cc57879291838061044f938a8252818652878a8320541693519082855af13d156104c4573d9161043583610627565b926104428a519485610605565b83523d868685013e61067d565b50826005541695825252828520541690833b156104c057906044859283855196879485936340c10f1960e01b8552840152678ac7230489e8000060248401525af190811561028057506104b1575b509060065416600655803880808080808680f35b6104ba906105db565b3861049d565b8480fd5b60609161067d565b855162461bcd60e51b8152808601849052601060248201526f75736572206e6f74206578697374732160801b6044820152606490fd5b60018201546001600160a01b0316331461051f57506001016103b4565b6103bd565b8380fd5b5082346103185760203660031901126103185780356001600160a01b038181169182900361052457835b83811061058a575b9261056791929310610643565b60055490811615610576578280f35b6001600160a01b0319161760055581808280f35b81816001015416331461059f57600101610552565b61055a565b905083346105d75760203660031901126105d7578035908110156105d757600101546001600160a01b0316815260209150f35b8280fd5b67ffffffffffffffff81116105ef57604052565b634e487b7160e01b600052604160045260246000fd5b90601f8019910116810190811067ffffffffffffffff8211176105ef57604052565b67ffffffffffffffff81116105ef57601f01601f191660200190565b1561064a57565b60405162461bcd60e51b815260206004820152600b60248201526a6f6e6c79206f776e65722160a81b6044820152606490fd5b906106a4575080511561069257805190602001fd5b604051630a12f52160e11b8152600490fd5b815115806106d7575b6106b5575090565b604051639996b31560e01b81526001600160a01b039091166004820152602490fd5b50803b156106ad56fea26469706673582212202b86c57d9b7e70f72a0b0ae3a4688bf5feb9ef365aa76d80c15bcaab8be3bc3064736f6c6343000819003361016080604052346101715761001481610176565b6007815260208101661058d8dbdd5b9d60ca1b81526040519161003683610176565b6001835260208301603160f81b815261004e82610191565b9261012093845261005e85610350565b92610140938452519020938460e05251902091610100938385524660a0526040519360208501917f8b73c3c69bb8fe3d512ecc4cf759cc79239f7b179b0ffacaa9a75d522b39400f8352604086015260608501524660808501523060a085015260a0845260c084019380851060018060401b0386111761015b57846040525190206080523060c05260018060a01b03193381600254161760025533816003541617600355338160045416176004553390600554161760055561155393846104eb8539608051846110d8015260a051846111a4015260c051846110a2015260e051846111270152518361114d0152518261072c015251816107560152f35b634e487b7160e01b600052604160045260246000fd5b600080fd5b604081019081106001600160401b0382111761015b57604052565b8051602091908281101561022b575090601f8251116101cc57808251920151908083106101bd57501790565b82600019910360031b1b161790565b90604051809263305a27a960e01b82528060048301528251908160248401526000935b828510610212575050604492506000838284010152601f80199101168101030190fd5b84810182015186860160440152938101938593506101ef565b6001600160401b03811161015b576000928354926001938481811c91168015610346575b8382101461033257601f81116102ff575b5081601f841160011461029c57509282939183928694610291575b50501b916000199060031b1c191617905560ff90565b01519250388061027b565b919083601f1981168780528488209488905b888383106102e557505050106102cc575b505050811b01905560ff90565b015160001960f88460031b161c191690553880806102bf565b8587015188559096019594850194879350908101906102ae565b85805284601f848820920160051c820191601f860160051c015b828110610327575050610260565b878155018590610319565b634e487b7160e01b86526022600452602486fd5b90607f169061024f565b8051602090818110156103d95750601f82511161037a57808251920151908083106101bd57501790565b90604051809263305a27a960e01b82528060048301528251908160248401526000935b8285106103c0575050604492506000838284010152601f80199101168101030190fd5b848101820151868601604401529381019385935061039d565b9192916001600160401b03811161015b5760019182548381811c911680156104e0575b828210146104ca57601f8111610494575b5080601f831160011461044a57508192939460009261043f575b5050600019600383901b1c191690821b17905560ff90565b015190503880610427565b90601f198316958460005282600020926000905b88821061047d57505083859697106102cc57505050811b01905560ff90565b80878596829496860151815501950193019061045e565b8360005283601f83600020920160051c820191601f850160051c015b8281106104be57505061040d565b600081550184906104b0565b634e487b7160e01b600052602260045260246000fd5b90607f16906103fc56fe60406080815260048036101561001f575b5050361561001d57600080fd5b005b600090813560e01c8063070a4d1d14610b6657806314bfd6d014610b2f5780632657ce8c146108775780633644e515146108535780634da0197f1461083457806384b0196e146107155780638875690b1461052057806391dde026146103cc57806392bbdf5014610389578063952b5c93146102aa5763f9beb27c146100a55750610010565b60a03660031901126102a6576100b9610d61565b602435916100c5610d7c565b6064359060843567ffffffffffffffff81116102a2576101a49161018e6100f26101979336908801610e83565b8a516001600160a01b03891660208201908152604082018b9052610189918d919061012a81606081015b03601f198101835282610e0e565b51902061013561100e565b6101426007548a11610f7d565b81519060208201926000805160206114de833981519152845260018060a01b038098169083015289606083015260808201526080815261018181610dc0565b519020611079565b6111ca565b90939193611206565b8060065416911614610fba565b60075547831161025f578380808086865af13d1561025a573d6101c681610e30565b906101d388519283610e0e565b81528560203d92013e5b15610221575092516001600160a01b0390931683526020830152907ffd69c215b8b91dab5e96ff0bcbaf5dc372919948eea2003ae16481c036f816f890604090a180f35b606490602086519162461bcd60e51b835282015260136024820152723a3930b739b332b922aa24103330b4b632b21760691b6044820152fd5b6101dd565b606490602086519162461bcd60e51b8352820152601a60248201527f4554482062616c616e6365206973206e6f7420656e6f756768210000000000006044820152fd5b8680fd5b5080fd5b50503461038657806003193601126103865781519182826009546102cd81610f43565b908184526020956001918760018216918260001461035f575050600114610315575b5050506103119291610302910385610e0e565b51928284938452830190610ea1565b0390f35b9190869350600983526000805160206114fe8339815191525b82841061034757505050820101816103026103116102ef565b8054848a01860152889550879490930192810161032e565b60ff19168782015293151560051b86019093019350849250610302915061031190506102ef565b80fd5b50346102a65760203660031901126102a6576103a361100e565b60085490803582018092116103b9575060085580f35b634e487b7160e01b835260119052602482fd5b50823461051c5760206104d29261049b61048d866104846103ec36610ee1565b8c516001600160a01b0380881660208301908152908716604083015260608201869052949b969a95999397929594610189918f919061042e816080810161011c565b51902061043961100e565b6104466007548911610f7d565b8151908f8201926000805160206114de833981519152845260018060a01b03809c169083015288606083015260808201526080815261018181610dc0565b90929192611206565b848060065416911614610fba565b600755875163095ea7b360e01b81526001600160a01b03909416908401908152602081019590955291968794859391849160400190565b0393165af190811561051357506104e7575080f35b6105089060203d60201161050c575b6105008183610e0e565b810190610ff6565b5080f35b503d6104f6565b513d84823e3d90fd5b8280fd5b5091346102a65761053036610ee1565b86516001600160a01b038781166020808401918252918816604084015260608084018890528352959a9098979096959093929161056e608082610e0e565b51902061057961100e565b600754831161058790610f7d565b8751898101916000805160206114de8339815191528352600160a01b600190038097168a8301528460608301526080820152608081526105c681610dc0565b5190206105d290611079565b906105dc916111ca565b6105e591611206565b8380600654169116146105f790610fba565b600755169183516370a0823160e01b81523082820152858185815a91602492fa90811561070b5787916106de575b50871161069b57835163a9059cbb60e01b81526001600160a01b0390921690820190815260208101879052909291849184919082908890829060400103925af19081156106925750610675578280f35b8161068b92903d1061050c576105008183610e0e565b5081808280f35b513d85823e3d90fd5b835162461bcd60e51b8152908101859052601c60248201527f746f6b656e2062616c616e6365206973206e6f7420656e6f75676821000000006044820152606490fd5b90508581813d8311610704575b6106f58183610e0e565b810103126102a2575138610625565b503d6106eb565b85513d89823e3d90fd5b50823461051c578260031936011261051c576107507f000000000000000000000000000000000000000000000000000000000000000061128b565b9261077a7f000000000000000000000000000000000000000000000000000000000000000061138c565b90825192602092602085019585871067ffffffffffffffff88111761082157509260206107d78388966107ca998b9996528686528151998a99600f60f81b8b5260e0868c015260e08b0190610ea1565b91898303908a0152610ea1565b924660608801523060808801528460a088015286840360c088015251928381520193925b82811061080a57505050500390f35b8351855286955093810193928101926001016107fb565b634e487b7160e01b845260419052602483fd5b8284346102a657816003193601126102a6576020906008549051908152f35b8284346102a657816003193601126102a65760209061087061109f565b9051908152f35b5091346102a65760a03660031901126102a657610892610d61565b9067ffffffffffffffff90602435828111610b2b576108b49036908701610d92565b956108bd610d7c565b9360643595608435828111610b27576108d99036908501610e83565b966108e5368b87610e4c565b9788516020809a01209787518a81019060018060a01b038096169a8b83528a8201528981526060810181811088821117610b14579361018961098f948e8d8f9a999896610484966109809883525190209061093e61100e565b61094b6007548b11610f7d565b8a8151938401946000805160206114de8339815191528652169083015288606083015260808201526080815261018181610dc0565b60065493808516911614610fba565b6007556001600160a01b031916176006558711610b0157506109b2600954610f43565b601f8111610ab1575b508490601f8711600114610a1f5795809186977f39e4ae4267415f07fb67fb34355e964aad505c125db57dfe6c8409a4fd8b685a9792610a14575b50508160011b916000199060031b1c1916176009555b51908152a180f35b0135905038806109f6565b600986526000805160206114fe83398151915291601f198816875b818110610a9a57509160019391897f39e4ae4267415f07fb67fb34355e964aad505c125db57dfe6c8409a4fd8b685a999a9410610a80575b505050811b01600955610a0c565b0135600019600384901b60f8161c19169055388080610a72565b919387600181928787013581550195019201610a3a565b600986526000805160206114fe833981519152601f880160051c810191868910610af7575b601f0160051c01905b818110610aec57506109bb565b868155600101610adf565b9091508190610ad6565b634e487b7160e01b865260419052602485fd5b634e487b7160e01b8e526041895260248efd5b8880fd5b8480fd5b5082903461051c57602036600319011261051c5780359081101561051c576002015490516001600160a01b03909116815260209150f35b5091346102a657806003193601126102a657610b80610d61565b67ffffffffffffffff93602435858111610b2b57610ba19036908301610d92565b919095610bac61100e565b600654936001600160a01b039081861615610bc5578780f35b1680946bffffffffffffffffffffffff60a01b16176006558211610d4e5750610bef600954610f43565b601f8111610cfd575b5083601f8211600114610c6a57819085967fd15cf8df5e2d60ca581fa0aad07778c6cfbec8b2a1da625e52427b13b25dd1229692610c5f575b50508160011b916000199060031b1c1916176009555b8151908152336020820152a180388080808080808780f35b013590503880610c31565b600985526000805160206114fe83398151915290601f198316865b818110610ce55750968392916001947fd15cf8df5e2d60ca581fa0aad07778c6cfbec8b2a1da625e52427b13b25dd122989910610ccb575b505050811b01600955610c47565b0135600019600384901b60f8161c19169055388080610cbd565b9192602060018192868c013581550194019201610c85565b600985526000805160206114fe833981519152601f830160051c81019160208410610d44575b601f0160051c01905b818110610d395750610bf8565b858155600101610d2c565b9091508190610d23565b634e487b7160e01b855260419052602484fd5b600435906001600160a01b0382168203610d7757565b600080fd5b604435906001600160a01b0382168203610d7757565b9181601f84011215610d775782359167ffffffffffffffff8311610d775760208381860195010111610d7757565b60a0810190811067ffffffffffffffff821117610ddc57604052565b634e487b7160e01b600052604160045260246000fd5b6040810190811067ffffffffffffffff821117610ddc57604052565b90601f8019910116810190811067ffffffffffffffff821117610ddc57604052565b67ffffffffffffffff8111610ddc57601f01601f191660200190565b929192610e5882610e30565b91610e666040519384610e0e565b829481845281830111610d77578281602093846000960137010152565b9080601f83011215610d7757816020610e9e93359101610e4c565b90565b919082519283825260005b848110610ecd575050826000602080949584010152601f8019910116010190565b602081830181015184830182015201610eac565b60c0600319820112610d77576001600160a01b036004358181168103610d7757926024358281168103610d775792604435926064359081168103610d7757916084359160a4359067ffffffffffffffff8211610d7757610e9e91600401610e83565b90600182811c92168015610f73575b6020831014610f5d57565b634e487b7160e01b600052602260045260246000fd5b91607f1691610f52565b15610f8457565b60405162461bcd60e51b815260206004820152600e60248201526d6e6f6e636520696e76616c69642160901b6044820152606490fd5b15610fc157565b60405162461bcd60e51b815260206004820152600d60248201526c7065726d6974206572726f722160981b6044820152606490fd5b90816020910312610d7757518015158103610d775790565b60005b60048110611058575b6004111561102457565b60405162461bcd60e51b815260206004820152600c60248201526b6f6e6c792061646d696e732160a01b6044820152606490fd5b60028101546001600160a01b0316331461107457600101611011565b61101a565b60429061108461109f565b906040519161190160f01b8352600283015260228201522090565b307f00000000000000000000000000000000000000000000000000000000000000006001600160a01b031614806111a1575b156110fa577f000000000000000000000000000000000000000000000000000000000000000090565b60405160208101907f8b73c3c69bb8fe3d512ecc4cf759cc79239f7b179b0ffacaa9a75d522b39400f82527f000000000000000000000000000000000000000000000000000000000000000060408201527f000000000000000000000000000000000000000000000000000000000000000060608201524660808201523060a082015260a0815260c0810181811067ffffffffffffffff821117610ddc5760405251902090565b507f000000000000000000000000000000000000000000000000000000000000000046146110d1565b81519190604183036111fb576111f492506020820151906060604084015193015160001a9061144d565b9192909190565b505060009160029190565b60048110156112755780611218575050565b600181036112325760405163f645eedf60e01b8152600490fd5b600281036112535760405163fce698f760e01b815260048101839052602490fd5b60031461125d5750565b602490604051906335e2f38360e21b82526004820152fd5b634e487b7160e01b600052602160045260246000fd5b60ff81146112c95760ff811690601f82116112b757604051916112ad83610df2565b8252602082015290565b604051632cd44ac360e21b8152600490fd5b50604051600081600054916112dd83610f43565b808352926020906001908181169081156113685750600114611308575b5050610e9e92500382610e0e565b915092600080527f290decd9548b62a8d60345a988386fc84ba6bc95484008f6362f93160ef3e563936000925b8284106113505750610e9e94505050810160200138806112fa565b85548785018301529485019486945092810192611335565b91505060209250610e9e94915060ff191682840152151560051b82010138806112fa565b60ff81146113ae5760ff811690601f82116112b757604051916112ad83610df2565b506040516000816001916001546113c481610f43565b808452936020916001811690811561136857506001146113ec575050610e9e92500382610e0e565b91509260016000527fb10e2d527612073b26eecdfd717e6a320cf44b4afac2b0732d9fcbe2b7fa0cf6936000925b8284106114355750610e9e94505050810160200138806112fa565b8554878501830152948501948694509281019261141a565b91907f7fffffffffffffffffffffffffffffff5d576e7357a4501ddfe92f46681b20a084116114d157926020929160ff608095604051948552168484015260408301526060820152600092839182805260015afa156114c55780516001600160a01b038116156114bc57918190565b50809160019190565b604051903d90823e3d90fd5b5050506000916003919056fe2064f38e180b94f053ced20b3e46ad64ac4656e9697a6722232e4e3b24523bfd6e1540171b6c0c960b71a7020d9f60077f6af931a8bbf590da0223dacf75c7afa2646970667358221220ed2bd074c4f88bbde9a02da5af11465a8805ea879bf80187791bc7112cefbb7c64736f6c63430008190033","linkReferences":{}},"methodIdentifiers":{"accountImpl()":"8804eb9f","execute(uint256,bytes)":"59efcb15","initPoint(address)":"34e3fac3","newAccount(uint256,address,string)":"c4dab887","owners(uint256)":"025e7c27","queryAccount(uint256)":"e31a20ac"},"id":37}