{
  "abi": [
    {
      "type": "constructor",
      "inputs": [],
      "stateMutability": "nonpayable"
    },
    {
      "type": "function",
      "name": "execute",
      "inputs": [
        {
          "name": "_ownerId",
          "type": "uint256",
          "internalType": "uint256"
        },
        {
          "name": "data",
          "type": "bytes",
          "internalType": "bytes"
        }
      ],
      "outputs": [],
      "stateMutability": "payable"
    },
    {
      "type": "function",
      "name": "initPoint",
      "inputs": [
        {
          "name": "pointAddress",
          "type": "address",
          "internalType": "address"
        }
      ],
      "outputs": [],
      "stateMutability": "nonpayable"
    },
    {
      "type": "function",
      "name": "newAccount",
      "inputs": [
        {
          "name": "_ownerId",
          "type": "uint256",
          "internalType": "uint256"
        },
        {
          "name": "_passwdAddr",
          "type": "address",
          "internalType": "address"
        }
      ],
      "outputs": [],
      "stateMutability": "nonpayable"
    },
    {
      "type": "function",
      "name": "owners",
      "inputs": [
        {
          "name": "",
          "type": "uint256",
          "internalType": "uint256"
        }
      ],
      "outputs": [
        {
          "name": "",
          "type": "address",
          "internalType": "address"
        }
      ],
      "stateMutability": "view"
    },
    {
      "type": "function",
      "name": "queryAccount",
      "inputs": [
        {
          "name": "_ownerId",
          "type": "uint256",
          "internalType": "uint256"
        }
      ],
      "outputs": [
        {
          "name": "",
          "type": "address",
          "internalType": "address"
        }
      ],
      "stateMutability": "view"
    },
    {
      "type": "error",
      "name": "AddressEmptyCode",
      "inputs": [
        {
          "name": "target",
          "type": "address",
          "internalType": "address"
        }
      ]
    },
    {
      "type": "error",
      "name": "AddressInsufficientBalance",
      "inputs": [
        {
          "name": "account",
          "type": "address",
          "internalType": "address"
        }
      ]
    },
    {
      "type": "error",
      "name": "FailedInnerCall",
      "inputs": []
    }
  ],
  "bytecode": {
    "object": "0x6080604052348015600f57600080fd5b5060018054336001600160a01b0319918216811790925560028054821683179055600380548216831790556004805490911690911790556120ad806100556000396000f3fe60806040526004361061004a5760003560e01c8063025e7c271461004f57806334e3fac31461008b57806359efcb15146100ad578063a7b5ab9c146100c0578063e31a20ac146100e0575b600080fd5b34801561005b57600080fd5b5061006f61006a3660046106bb565b610100565b6040516001600160a01b03909116815260200160405180910390f35b34801561009757600080fd5b506100ab6100a63660046106f0565b610120565b005b6100ab6100bb366004610721565b6101b1565b3480156100cc57600080fd5b506100ab6100db3660046107dc565b610336565b3480156100ec57600080fd5b5061006f6100fb3660046106bb565b610501565b6001816004811061011057600080fd5b01546001600160a01b0316905081565b60005b6004811015610158576001816004811061013f5761013f610808565b01546001600160a01b0316331461015857600101610123565b600481106101815760405162461bcd60e51b81526004016101789061081e565b60405180910390fd5b6005546001600160a01b03166101ad57600580546001600160a01b0319166001600160a01b0384161790555b5050565b60005b60048110156101e957600181600481106101d0576101d0610808565b01546001600160a01b031633146101e9576001016101b4565b600481106102095760405162461bcd60e51b81526004016101789061081e565b600554600160a01b900460ff16610331576005805460ff60a01b1916600160a01b1790556000838152602081905260409020546001600160a01b03166102845760405162461bcd60e51b815260206004820152601060248201526f75736572206e6f74206578697374732160801b6044820152606401610178565b6000838152602081905260409020546102a6906001600160a01b031683610577565b50600554600084815260208190526040908190205490516340c10f1960e01b81526001600160a01b039182166004820152678ac7230489e8000060248201529116906340c10f1990604401600060405180830381600087803b15801561030b57600080fd5b505af115801561031f573d6000803e3d6000fd5b50506005805460ff60a01b1916905550505b505050565b60005b600481101561036e576001816004811061035557610355610808565b01546001600160a01b0316331461036e57600101610339565b6004811061038e5760405162461bcd60e51b81526004016101789061081e565b6000838152602081905260409020546001600160a01b0316156103e25760405162461bcd60e51b815260206004820152600c60248201526b75736572206578697374732160a01b6044820152606401610178565b60006040516103f0906106ae565b604051809103906000f08015801561040c573d6000803e3d6000fd5b5060405162ec1e8b60e01b81526001600160a01b0385811660048301529192509082169062ec1e8b90602401600060405180830381600087803b15801561045257600080fd5b505af1158015610466573d6000803e3d6000fd5b5050506000858152602081905260409081902080546001600160a01b0319166001600160a01b0385811691821790925560055492516340c10f1960e01b8152600481019190915268056bc75e2d631000006024820152911691506340c10f1990604401600060405180830381600087803b1580156104e357600080fd5b505af11580156104f7573d6000803e3d6000fd5b5050505050505050565b6000805b600481101561053a576001816004811061052157610521610808565b01546001600160a01b0316331461053a57600101610505565b6004811061055a5760405162461bcd60e51b81526004016101789061081e565b50506000908152602081905260409020546001600160a01b031690565b60606105858383600061058c565b9392505050565b6060814710156105b15760405163cd78605960e01b8152306004820152602401610178565b600080856001600160a01b031684866040516105cd9190610843565b60006040518083038185875af1925050503d806000811461060a576040519150601f19603f3d011682016040523d82523d6000602084013e61060f565b606091505b509150915061061f868383610629565b9695505050505050565b60608261063e5761063982610685565b610585565b815115801561065557506001600160a01b0384163b155b1561067e57604051639996b31560e01b81526001600160a01b0385166004820152602401610178565b5080610585565b8051156106955780518082602001fd5b604051630a12f52160e11b815260040160405180910390fd5b6118058061087383390190565b6000602082840312156106cd57600080fd5b5035919050565b80356001600160a01b03811681146106eb57600080fd5b919050565b60006020828403121561070257600080fd5b610585826106d4565b634e487b7160e01b600052604160045260246000fd5b6000806040838503121561073457600080fd5b82359150602083013567ffffffffffffffff8082111561075357600080fd5b818501915085601f83011261076757600080fd5b8135818111156107795761077961070b565b604051601f8201601f19908116603f011681019083821181831017156107a1576107a161070b565b816040528281528860208487010111156107ba57600080fd5b8260208601602083013760006020848301015280955050505050509250929050565b600080604083850312156107ef57600080fd5b823591506107ff602084016106d4565b90509250929050565b634e487b7160e01b600052603260045260246000fd5b6020808252600b908201526a6f6e6c79206f776e65722160a81b604082015260600190565b6000825160005b81811015610864576020818601810151858301520161084a565b50600092019182525091905056fe61016060405234801561001157600080fd5b5060408051808201825260078152661058d8dbdd5b9d60ca1b602080830191909152825180840190935260018352603160f81b9083015290610054826000610134565b61012052610063816001610134565b61014052815160208084019190912060e052815190820120610100524660a0526100f060e05161010051604080517f8b73c3c69bb8fe3d512ecc4cf759cc79239f7b179b0ffacaa9a75d522b39400f60208201529081019290925260608201524660808201523060a082015260009060c00160405160208183030381529060405280519060200120905090565b60805250503060c05260038054336001600160a01b031991821681179092556004805482168317905560058054821683179055600680549091169091179055610381565b60006020835110156101505761014983610167565b9050610161565b8161015b848261024f565b5060ff90505b92915050565b600080829050601f8151111561019b578260405163305a27a960e01b8152600401610192919061030e565b60405180910390fd5b80516101a68261035d565b179392505050565b634e487b7160e01b600052604160045260246000fd5b600181811c908216806101d857607f821691505b6020821081036101f857634e487b7160e01b600052602260045260246000fd5b50919050565b601f82111561024a576000816000526020600020601f850160051c810160208610156102275750805b601f850160051c820191505b8181101561024657828155600101610233565b5050505b505050565b81516001600160401b03811115610268576102686101ae565b61027c8161027684546101c4565b846101fe565b602080601f8311600181146102b157600084156102995750858301515b600019600386901b1c1916600185901b178555610246565b600085815260208120601f198616915b828110156102e0578886015182559484019460019091019084016102c1565b50858210156102fe5787850151600019600388901b60f8161c191681555b5050505050600190811b01905550565b60006020808352835180602085015260005b8181101561033c57858101830151858201604001528201610320565b506000604082860101526040601f19601f8301168501019250505092915050565b805160208083015191908110156101f85760001960209190910360031b1b16919050565b60805160a05160c05160e05161010051610120516101405161142a6103db6000396000610c5a01526000610c2d01526000610b7801526000610b5001526000610aab01526000610ad501526000610aff015261142a6000f3fe60806040526004361061009f5760003560e01c80637ecebe00116100645780637ecebe001461016357806384b0196e146101995780638875690b146101c157806391dde026146101e157806392bbdf5014610201578063f9beb27c1461022157600080fd5b8062ec1e8b146100ab57806314bfd6d0146100cd5780633644e5151461010a5780633b04b5ff1461012d5780634da0197f1461014d57600080fd5b366100a657005b600080fd5b3480156100b757600080fd5b506100cb6100c6366004610f87565b610234565b005b3480156100d957600080fd5b506100ed6100e8366004610fa9565b6102a6565b6040516001600160a01b0390911681526020015b60405180910390f35b34801561011657600080fd5b5061011f6102c6565b604051908152602001610101565b34801561013957600080fd5b506100cb610148366004611065565b6102d5565b34801561015957600080fd5b5061011f60095481565b34801561016f57600080fd5b5061011f61017e366004610f87565b6001600160a01b031660009081526002602052604090205490565b3480156101a557600080fd5b506101ae610422565b6040516101019796959493929190611113565b3480156101cd57600080fd5b506100cb6101dc3660046111ac565b610468565b3480156101ed57600080fd5b506100cb6101fc3660046111ac565b61069f565b34801561020d57600080fd5b506100cb61021c366004610fa9565b6107d0565b6100cb61022f36600461122d565b6107f2565b61023c610a27565b6007546001600160a01b03166102a357600780546001600160a01b0319166001600160a01b038316908117909155604080519182523360208301527fd15cf8df5e2d60ca581fa0aad07778c6cfbec8b2a1da625e52427b13b25dd122910160405180910390a15b50565b600381600481106102b657600080fd5b01546001600160a01b0316905081565b60006102d0610a9e565b905090565b604080516001600160a01b0386166020820152849184918491016040516020818303038152906040528051906020012061030d610a27565b60085483116103375760405162461bcd60e51b815260040161032e9061129f565b60405180910390fd5b60006000805160206113d583398151915285858460405160200161035e94939291906112c7565b604051602081830303815290604052805190602001209050600061038182610bc9565b9050600061038f8286610bfc565b6007549091506001600160a01b038083169116146103bf5760405162461bcd60e51b815260040161032e906112eb565b6008869055600780546001600160a01b0319166001600160a01b038d169081179091556040519081527f39e4ae4267415f07fb67fb34355e964aad505c125db57dfe6c8409a4fd8b685a9060200160405180910390a15050505050505050505050565b600060608060008060006060610436610c26565b61043e610c53565b60408051600080825260208201909252600f60f81b9b939a50919850469750309650945092509050565b604080516001600160a01b03808916602083015287169181019190915260608101859052839083908390608001604051602081830303815290604052805190602001206104b3610a27565b60085483116104d45760405162461bcd60e51b815260040161032e9061129f565b60006000805160206113d58339815191528585846040516020016104fb94939291906112c7565b604051602081830303815290604052805190602001209050600061051e82610bc9565b9050600061052c8286610bfc565b6007549091506001600160a01b0380831691161461055c5760405162461bcd60e51b815260040161032e906112eb565b60088690556040516370a0823160e01b81523060048201528c906001600160a01b038f16906370a0823190602401602060405180830381865afa1580156105a7573d6000803e3d6000fd5b505050506040513d601f19601f820116820180604052508101906105cb9190611312565b8c111561061a5760405162461bcd60e51b815260206004820152601c60248201527f746f6b656e2062616c616e6365206973206e6f7420656e6f7567682100000000604482015260640161032e565b60405163a9059cbb60e01b81526001600160a01b038e81166004830152602482018e90528f169063a9059cbb906044015b6020604051808303816000875af115801561066a573d6000803e3d6000fd5b505050506040513d601f19601f8201168201806040525081019061068e919061132b565b505050505050505050505050505050565b604080516001600160a01b03808916602083015287169181019190915260608101859052839083908390608001604051602081830303815290604052805190602001206106ea610a27565b600854831161070b5760405162461bcd60e51b815260040161032e9061129f565b60006000805160206113d583398151915285858460405160200161073294939291906112c7565b604051602081830303815290604052805190602001209050600061075582610bc9565b905060006107638286610bfc565b6007549091506001600160a01b038083169116146107935760405162461bcd60e51b815260040161032e906112eb565b600886905560405163095ea7b360e01b81526001600160a01b03808e166004830152602482018d90528d91908f169063095ea7b39060440161064b565b6107d8610a27565b80600960008282546107ea919061134d565b909155505050565b604080516001600160a01b038716602082015290810185905283908390839060600160405160208183030381529060405280519060200120610832610a27565b60085483116108535760405162461bcd60e51b815260040161032e9061129f565b60006000805160206113d583398151915285858460405160200161087a94939291906112c7565b604051602081830303815290604052805190602001209050600061089d82610bc9565b905060006108ab8286610bfc565b6007549091506001600160a01b038083169116146108db5760405162461bcd60e51b815260040161032e906112eb565b60088690558b478c11156109315760405162461bcd60e51b815260206004820152601a60248201527f4554482062616c616e6365206973206e6f7420656e6f75676821000000000000604482015260640161032e565b60008d6001600160a01b03168d60405160006040518083038185875af1925050503d806000811461097e576040519150601f19603f3d011682016040523d82523d6000602084013e610983565b606091505b50509050806109ca5760405162461bcd60e51b81526020600482015260136024820152723a3930b739b332b922aa24103330b4b632b21760691b604482015260640161032e565b7ffd69c215b8b91dab5e96ff0bcbaf5dc372919948eea2003ae16481c036f816f88e8e604051610a0f9291906001600160a01b03929092168252602082015260400190565b60405180910390a15050505050505050505050505050565b60005b6004811015610a5f5760038160048110610a4657610a4661136e565b01546001600160a01b03163314610a5f57600101610a2a565b600481106102a35760405162461bcd60e51b815260206004820152600c60248201526b6f6e6c792061646d696e732160a01b604482015260640161032e565b6000306001600160a01b037f000000000000000000000000000000000000000000000000000000000000000016148015610af757507f000000000000000000000000000000000000000000000000000000000000000046145b15610b2157507f000000000000000000000000000000000000000000000000000000000000000090565b6102d0604080517f8b73c3c69bb8fe3d512ecc4cf759cc79239f7b179b0ffacaa9a75d522b39400f60208201527f0000000000000000000000000000000000000000000000000000000000000000918101919091527f000000000000000000000000000000000000000000000000000000000000000060608201524660808201523060a082015260009060c00160405160208183030381529060405280519060200120905090565b6000610bf6610bd6610a9e565b8360405161190160f01b8152600281019290925260228201526042902090565b92915050565b600080600080610c0c8686610c80565b925092509250610c1c8282610ccd565b5090949350505050565b60606102d07f00000000000000000000000000000000000000000000000000000000000000006000610d8a565b60606102d07f00000000000000000000000000000000000000000000000000000000000000006001610d8a565b60008060008351604103610cba5760208401516040850151606086015160001a610cac88828585610e35565b955095509550505050610cc6565b50508151600091506002905b9250925092565b6000826003811115610ce157610ce1611384565b03610cea575050565b6001826003811115610cfe57610cfe611384565b03610d1c5760405163f645eedf60e01b815260040160405180910390fd5b6002826003811115610d3057610d30611384565b03610d515760405163fce698f760e01b81526004810182905260240161032e565b6003826003811115610d6557610d65611384565b03610d86576040516335e2f38360e21b81526004810182905260240161032e565b5050565b606060ff8314610da457610d9d83610f04565b9050610bf6565b818054610db09061139a565b80601f0160208091040260200160405190810160405280929190818152602001828054610ddc9061139a565b8015610e295780601f10610dfe57610100808354040283529160200191610e29565b820191906000526020600020905b815481529060010190602001808311610e0c57829003601f168201915b50505050509050610bf6565b600080807f7fffffffffffffffffffffffffffffff5d576e7357a4501ddfe92f46681b20a0841115610e705750600091506003905082610efa565b604080516000808252602082018084528a905260ff891692820192909252606081018790526080810186905260019060a0016020604051602081039080840390855afa158015610ec4573d6000803e3d6000fd5b5050604051601f1901519150506001600160a01b038116610ef057506000925060019150829050610efa565b9250600091508190505b9450945094915050565b60606000610f1183610f43565b604080516020808252818301909252919250600091906020820181803683375050509182525060208101929092525090565b600060ff8216601f811115610bf657604051632cd44ac360e21b815260040160405180910390fd5b80356001600160a01b0381168114610f8257600080fd5b919050565b600060208284031215610f9957600080fd5b610fa282610f6b565b9392505050565b600060208284031215610fbb57600080fd5b5035919050565b634e487b7160e01b600052604160045260246000fd5b600082601f830112610fe957600080fd5b813567ffffffffffffffff8082111561100457611004610fc2565b604051601f8301601f19908116603f0116810190828211818310171561102c5761102c610fc2565b8160405283815286602085880101111561104557600080fd5b836020870160208301376000602085830101528094505050505092915050565b6000806000806080858703121561107b57600080fd5b61108485610f6b565b935061109260208601610f6b565b925060408501359150606085013567ffffffffffffffff8111156110b557600080fd5b6110c187828801610fd8565b91505092959194509250565b6000815180845260005b818110156110f3576020818501810151868301820152016110d7565b506000602082860101526020601f19601f83011685010191505092915050565b60ff60f81b881681526000602060e0602084015261113460e084018a6110cd565b8381036040850152611146818a6110cd565b606085018990526001600160a01b038816608086015260a0850187905284810360c08601528551808252602080880193509091019060005b8181101561119a5783518352928401929184019160010161117e565b50909c9b505050505050505050505050565b60008060008060008060c087890312156111c557600080fd5b6111ce87610f6b565b95506111dc60208801610f6b565b9450604087013593506111f160608801610f6b565b92506080870135915060a087013567ffffffffffffffff81111561121457600080fd5b61122089828a01610fd8565b9150509295509295509295565b600080600080600060a0868803121561124557600080fd5b61124e86610f6b565b94506020860135935061126360408701610f6b565b925060608601359150608086013567ffffffffffffffff81111561128657600080fd5b61129288828901610fd8565b9150509295509295909350565b6020808252600e908201526d6e6f6e636520696e76616c69642160901b604082015260600190565b9384526001600160a01b039290921660208401526040830152606082015260800190565b6020808252600d908201526c7065726d6974206572726f722160981b604082015260600190565b60006020828403121561132457600080fd5b5051919050565b60006020828403121561133d57600080fd5b81518015158114610fa257600080fd5b80820180821115610bf657634e487b7160e01b600052601160045260246000fd5b634e487b7160e01b600052603260045260246000fd5b634e487b7160e01b600052602160045260246000fd5b600181811c908216806113ae57607f821691505b6020821081036113ce57634e487b7160e01b600052602260045260246000fd5b5091905056fe2064f38e180b94f053ced20b3e46ad64ac4656e9697a6722232e4e3b24523bfda2646970667358221220079fd96c664cbf12332a8c43181e70881f4eb754fc88243c8580f1e4c1bd202564736f6c63430008190033a2646970667358221220824cf899092c9f3635489b5c295deb806c7d01b9a74e4349f571127e1b2c0ae364736f6c63430008190033",
    "linkReferences": {}
  },
  "methodIdentifiers": {
    "execute(uint256,bytes)": "59efcb15",
    "initPoint(address)": "34e3fac3",
    "newAccount(uint256,address)": "a7b5ab9c",
    "owners(uint256)": "025e7c27",
    "queryAccount(uint256)": "e31a20ac"
  },
  "id": 39
}