{
  "abi": [
    {
      "type": "constructor",
      "inputs": [],
      "stateMutability": "nonpayable"
    },
    {
      "type": "function",
      "name": "accountImpl",
      "inputs": [],
      "outputs": [
        {
          "name": "",
          "type": "address",
          "internalType": "address"
        }
      ],
      "stateMutability": "view"
    },
    {
      "type": "function",
      "name": "execute",
      "inputs": [
        {
          "name": "_ownerId",
          "type": "uint256",
          "internalType": "uint256"
        },
        {
          "name": "data",
          "type": "bytes",
          "internalType": "bytes"
        },
        {
          "name": "_preGasFee",
          "type": "uint256",
          "internalType": "uint256"
        }
      ],
      "outputs": [],
      "stateMutability": "payable"
    },
    {
      "type": "function",
      "name": "initPoint",
      "inputs": [
        {
          "name": "pointAddress",
          "type": "address",
          "internalType": "address"
        }
      ],
      "outputs": [],
      "stateMutability": "nonpayable"
    },
    {
      "type": "function",
      "name": "newAccount",
      "inputs": [
        {
          "name": "_ownerId",
          "type": "uint256",
          "internalType": "uint256"
        },
        {
          "name": "_passwdAddr",
          "type": "address",
          "internalType": "address"
        },
        {
          "name": "_questionNos",
          "type": "string",
          "internalType": "string"
        }
      ],
      "outputs": [],
      "stateMutability": "nonpayable"
    },
    {
      "type": "function",
      "name": "owners",
      "inputs": [
        {
          "name": "",
          "type": "uint256",
          "internalType": "uint256"
        }
      ],
      "outputs": [
        {
          "name": "",
          "type": "address",
          "internalType": "address"
        }
      ],
      "stateMutability": "view"
    },
    {
      "type": "function",
      "name": "queryAccount",
      "inputs": [
        {
          "name": "_ownerId",
          "type": "uint256",
          "internalType": "uint256"
        }
      ],
      "outputs": [
        {
          "name": "",
          "type": "address",
          "internalType": "address"
        }
      ],
      "stateMutability": "view"
    },
    {
      "type": "error",
      "name": "AddressEmptyCode",
      "inputs": [
        {
          "name": "target",
          "type": "address",
          "internalType": "address"
        }
      ]
    },
    {
      "type": "error",
      "name": "AddressInsufficientBalance",
      "inputs": [
        {
          "name": "account",
          "type": "address",
          "internalType": "address"
        }
      ]
    },
    {
      "type": "error",
      "name": "ERC1167FailedCreateClone",
      "inputs": []
    },
    {
      "type": "error",
      "name": "FailedInnerCall",
      "inputs": []
    }
  ],
  "bytecode": {
    "object": "0x60806040908082523461011b5760018060a01b031933816001541617600155338160025416176002553381600354161760035533816004541617600455611c1c908183019260018060401b03928185108486111761010557610882823980600094039084f080156100fb5760018060a01b031680916006541617600655803b156100f75790828092606486518096819363070a4d1d60e01b835261dead60048401528960248401528160448401525af180156100ed576100c8575b835161076190816101218239f35b82116100d9575081523880806100ba565b634e487b7160e01b81526041600452602490fd5b84513d84823e3d90fd5b8280fd5b84513d85823e3d90fd5b634e487b7160e01b600052604160045260246000fd5b600080fdfe608060408181526004918236101561001657600080fd5b600090813560e01c908163025e7c27146105ef5750806334e3fac3146105735780638804eb9f1461054a578063c4dab887146102c8578063ca726058146100ce5763e31a20ac1461006657600080fd5b346100cb5760203660031901126100cb57805b8381106100aa575b9261008f816020951061068e565b3581528083528190205490516001600160a01b039091168152f35b60018101546001600160a01b031633146100c657600101610079565b610081565b80fd5b5082606036600319011261024f5780356024359367ffffffffffffffff85116102c457366023860112156102c457848301359261010a84610672565b9561011783519788610650565b8487526020948588019136602483830101116102c0578188926024899301853789010152855b8280821061029e575b610150911061068e565b6006549460ff8660a01c1615610164578680f35b60ff60a01b19958616600160a01b17600655848752868152838720546001600160a01b03929083161561026857906101db88998980809a9b958a8252818652878a8320541693519082855af13d15610260573d916101c183610672565b926101ce8a519485610650565b83523d868685013e6106c8565b508260055416958252528285205416833b1561025c576044859283855196879485936340c10f1960e01b8552840152678ac7230489e8000060248401525af1908115610253575061023b575b505060065416600655808280808080808680f35b61024490610626565b61024f578183610227565b5080fd5b513d84823e3d90fd5b8480fd5b6060916106c8565b845162461bcd60e51b8152808501839052601060248201526f75736572206e6f74206578697374732160801b6044820152606490fd5b60018201546001600160a01b031633146102bb575060010161013d565b610146565b8780fd5b8380fd5b50823461024f57606036600319011261024f5780359260249182356001600160a01b03818116918290036104a2576044359667ffffffffffffffff8089116102c0573660238a0112156102c057888501359081116102c0573687828b0101116102c057875b8580821061052f575b610340911061068e565b818852876020528286892054166104fe57600654608881901c62ffffff16763d602d80600a3d3981f3363d3d373d3d3d363d7300000017895260781b6effffffffffffffffffffffffffffff19166e5af43d82803e903d91602b57fd5bf3176020528282603760098bf5169384156104ee57843b156104ea578651630162a88b60e71b815299898b8881838a5af180156104e0576104cc575b899a50853b156104c85760648a92848b958b51968795869463070a4d1d60e01b86528d8601528d8286015282604486015201848401378181018301859052601f01601f1916810103018183885af180156104be579088916104a6575b5052602086905283862080546001600160a01b0319168317905560055416803b156104a25785928360449268056bc75e2d63100000875198899687956340c10f1960e01b87528601528401525af190811561025357506104925750f35b61049b90610626565b6100cb5780f35b8580fd5b6104af90610626565b6104ba578689610435565b8680fd5b86513d8a823e3d90fd5b8980fd5b9890996104d890610626565b9789906103d9565b88513d8c823e3d90fd5b8880fd5b86516330be1a3d60e21b81528690fd5b855162461bcd60e51b8152602081870152600c818901526b75736572206578697374732160a01b6044820152606490fd5b848260010154163314610545575060010161032d565b610336565b50903461024f578160031936011261024f5760065490516001600160a01b039091168152602090f35b50823461024f57602036600319011261024f5780356001600160a01b03818116918290036102c457835b8381106105d5575b926105b29192931061068e565b600554908116156105c1578280f35b6001600160a01b0319161760055581808280f35b8181600101541633146105ea5760010161059d565b6105a5565b905083346106225760203660031901126106225780359081101561062257600101546001600160a01b0316815260209150f35b8280fd5b67ffffffffffffffff811161063a57604052565b634e487b7160e01b600052604160045260246000fd5b90601f8019910116810190811067ffffffffffffffff82111761063a57604052565b67ffffffffffffffff811161063a57601f01601f191660200190565b1561069557565b60405162461bcd60e51b815260206004820152600b60248201526a6f6e6c79206f776e65722160a81b6044820152606490fd5b906106ef57508051156106dd57805190602001fd5b604051630a12f52160e11b8152600490fd5b81511580610722575b610700575090565b604051639996b31560e01b81526001600160a01b039091166004820152602490fd5b50803b156106f856fea2646970667358221220bf530218e82781142868f89bc801a313a913e56fd3867bbf5391673eb9b4c22b64736f6c6343000819003361016080604052346101715761001481610176565b6007815260208101661058d8dbdd5b9d60ca1b81526040519161003683610176565b6001835260208301603160f81b815261004e82610191565b9261012093845261005e85610350565b92610140938452519020938460e05251902091610100938385524660a0526040519360208501917f8b73c3c69bb8fe3d512ecc4cf759cc79239f7b179b0ffacaa9a75d522b39400f8352604086015260608501524660808501523060a085015260a0845260c084019380851060018060401b0386111761015b57846040525190206080523060c05260018060a01b03193381600254161760025533816003541617600355338160045416176004553390600554161760055561173193846104eb8539608051846112b6015260a05184611382015260c05184611280015260e051846113050152518361132b01525182610883015251816108ad0152f35b634e487b7160e01b600052604160045260246000fd5b600080fd5b604081019081106001600160401b0382111761015b57604052565b8051602091908281101561022b575090601f8251116101cc57808251920151908083106101bd57501790565b82600019910360031b1b161790565b90604051809263305a27a960e01b82528060048301528251908160248401526000935b828510610212575050604492506000838284010152601f80199101168101030190fd5b84810182015186860160440152938101938593506101ef565b6001600160401b03811161015b576000928354926001938481811c91168015610346575b8382101461033257601f81116102ff575b5081601f841160011461029c57509282939183928694610291575b50501b916000199060031b1c191617905560ff90565b01519250388061027b565b919083601f1981168780528488209488905b888383106102e557505050106102cc575b505050811b01905560ff90565b015160001960f88460031b161c191690553880806102bf565b8587015188559096019594850194879350908101906102ae565b85805284601f848820920160051c820191601f860160051c015b828110610327575050610260565b878155018590610319565b634e487b7160e01b86526022600452602486fd5b90607f169061024f565b8051602090818110156103d95750601f82511161037a57808251920151908083106101bd57501790565b90604051809263305a27a960e01b82528060048301528251908160248401526000935b8285106103c0575050604492506000838284010152601f80199101168101030190fd5b848101820151868601604401529381019385935061039d565b9192916001600160401b03811161015b5760019182548381811c911680156104e0575b828210146104ca57601f8111610494575b5080601f831160011461044a57508192939460009261043f575b5050600019600383901b1c191690821b17905560ff90565b015190503880610427565b90601f198316958460005282600020926000905b88821061047d57505083859697106102cc57505050811b01905560ff90565b80878596829496860151815501950193019061045e565b8360005283601f83600020920160051c820191601f850160051c015b8281106104be57505061040d565b600081550184906104b0565b634e487b7160e01b600052602260045260246000fd5b90607f16906103fc56fe60406080815260048036101561001f575b5050361561001d57600080fd5b005b600090813560e01c8063070a4d1d14610d145780632657ce8c14610a055780633644e515146109e15780634da0197f146109c2578063513856c81461098b57806384b0196e1461086c5780638875690b1461065c57806391dde026146104c657806392bbdf5014610483578063952b5c93146103a4578063b154458014610359578063f0e3130b146102e65763f9beb27c146100bb5750610010565b60a03660031901126102e2576100cf610f0f565b602435916100db610f2a565b6064359060843567ffffffffffffffff81116102de576100fe9036908501611031565b87516001600160a01b0386166020820190815260408201889052899161013181606081015b03601f198101835282610fbc565b51902061013c6111ec565b60075485118061029d575b926101a76101c295936101ac936101606101b59761112b565b81519060208201926000805160206116bc833981519152845260018060a01b038098169083015289606083015260808201526080815261019f81610f6e565b519020611257565b6113a8565b909391936113e4565b8060065416911614611168565b60075547831161025a578380808086865af16101dc6111bc565b5015610221575092516001600160a01b0390931683526020830152907ffd69c215b8b91dab5e96ff0bcbaf5dc372919948eea2003ae16481c036f816f890604090a180f35b606490602086519162461bcd60e51b835282015260136024820152723a3930b739b332b922aa24103330b4b632b21760691b6044820152fd5b606490602086519162461bcd60e51b8352820152601a60248201527f4554482062616c616e6365206973206e6f7420656e6f756768210000000000006044820152fd5b5090506103e88042029042820414421517156102cb5763240c840081018091116102cb578991908510610147565b634e487b7160e01b895260118652602489fd5b8680fd5b5080fd5b508234610355576020366003190112610355576103016111ec565b828080808535335af16103126111bc565b501561031c578280f35b906020606492519162461bcd60e51b835282015260136024820152723a3930b73332b9103332b2903330b4b632b21760691b6044820152fd5b8280fd5b50346102e257816003193601126102e2576bffffffffffffffffffffffff60a01b90338260025416176002553382600354161760035533828254161790553390600554161760055580f35b50503461048057806003193601126104805781519182826009546103c7816110f1565b908184526020956001918760018216918260001461045957505060011461040f575b50505061040b92916103fc910385610fbc565b5192828493845283019061104f565b0390f35b9190869350600983526000805160206116dc8339815191525b82841061044157505050820101816103fc61040b6103e9565b8054848a018601528895508794909301928101610428565b60ff19168782015293151560051b860190930193508492506103fc915061040b90506103e9565b80fd5b50346102e25760203660031901126102e25761049d6111ec565b60085490803582018092116104b3575060085580f35b634e487b7160e01b835260119052602482fd5b5091346102e2576104d63661108f565b86516001600160a01b038088166020830190815290871660408301526060820186905291999496959492919061050f8160808101610123565b51902061051a6111ec565b600754821180610620575b9161059f6105916105888c9d6101a78d6105d69f999761054a60209f9e9d9c9a61112b565b8151908f8201926000805160206116bc833981519152845260018060a01b03809c169083015288606083015260808201526080815261019f81610f6e565b909291926113e4565b848060065416911614611168565b600755875163095ea7b360e01b81526001600160a01b03909416908401908152602081019590955291968794859391849160400190565b0393165af190811561061757506105eb575080f35b61060c9060203d602011610610575b6106048183610fbc565b8101906111a4565b5080f35b503d6105fa565b513d84823e3d90fd5b506103e88042029042820414421517156106495763240c84008101809111610649578210610525565b634e487b7160e01b8a526011845260248afd5b5091346102e25761066c3661108f565b86516001600160a01b038088166020808401918252918816604084015260608301879052959a909897909695909392916106a98160808101610123565b5190206106b46111ec565b600754831180610830575b610714926101a7610591936106d66105889461112b565b8b518d8101916000805160206116bc83398151915283528d60018060a01b03809c169083015288606083015260808201526080815261019f81610f6e565b600755169183516370a0823160e01b815230828201528581602481875afa9081156108265787916107f9575b5087116107b657835163a9059cbb60e01b81526001600160a01b0390921690820190815260208101879052909291849184919082908890829060400103925af19081156107ad5750610790578280f35b816107a692903d10610610576106048183610fbc565b5081808280f35b513d85823e3d90fd5b835162461bcd60e51b8152908101859052601c60248201527f746f6b656e2062616c616e6365206973206e6f7420656e6f75676821000000006044820152606490fd5b90508581813d831161081f575b6108108183610fbc565b810103126102de575138610740565b503d610806565b85513d89823e3d90fd5b506103e88042029042820414421517156108595763240c840081018091116108595783106106bf565b634e487b7160e01b8b526011885260248bfd5b5082346103555782600319360112610355576108a77f0000000000000000000000000000000000000000000000000000000000000000611469565b926108d17f000000000000000000000000000000000000000000000000000000000000000061156a565b90825192602092602085019585871067ffffffffffffffff881117610978575092602061092e838896610921998b9996528686528151998a99600f60f81b8b5260e0868c015260e08b019061104f565b91898303908a015261104f565b924660608801523060808801528460a088015286840360c088015251928381520193925b82811061096157505050500390f35b835185528695509381019392810192600101610952565b634e487b7160e01b845260419052602483fd5b5082903461035557602036600319011261035557803590811015610355576002015490516001600160a01b03909116815260209150f35b8284346102e257816003193601126102e2576020906008549051908152f35b8284346102e257816003193601126102e2576020906109fe61127d565b9051908152f35b5091346102e25760a03660031901126102e257610a20610f0f565b9067ffffffffffffffff90602435828111610d1057610a429036908701610f40565b95610a4b610f2a565b9360643595608435828111610d0c57610a679036908501611031565b96610a73368b87610ffa565b9788516020809a01209787518a81019060018060a01b038096169a8b83528a8201528981526060810181811088821117610cf9578a525190208994939291908b90610abc6111ec565b8a600754861180610cab575b9361058893610b2696936101a793610ae2610b179861112b565b8a8151938401946000805160206116bc8339815191528652169083015288606083015260808201526080815261019f81610f6e565b60065493808516911614611168565b6007556001600160a01b031916176006558711610c985750610b496009546110f1565b601f8111610c48575b508490601f8711600114610bb65795809186977f39e4ae4267415f07fb67fb34355e964aad505c125db57dfe6c8409a4fd8b685a9792610bab575b50508160011b916000199060031b1c1916176009555b51908152a180f35b013590503880610b8d565b600986526000805160206116dc83398151915291601f198816875b818110610c3157509160019391897f39e4ae4267415f07fb67fb34355e964aad505c125db57dfe6c8409a4fd8b685a999a9410610c17575b505050811b01600955610ba3565b0135600019600384901b60f8161c19169055388080610c09565b919387600181928787013581550195019201610bd1565b600986526000805160206116dc833981519152601f880160051c810191868910610c8e575b601f0160051c01905b818110610c835750610b52565b868155600101610c76565b9091508190610c6d565b634e487b7160e01b865260419052602485fd5b5050919293949550506103e8804202904282041442151715610ce65763240c84008101809111610ce6578a95949392918c918b908610610ac8565b634e487b7160e01b8d526011885260248dfd5b634e487b7160e01b8e526041895260248efd5b8880fd5b8480fd5b5091346102e257806003193601126102e257610d2e610f0f565b67ffffffffffffffff93602435858111610d1057610d4f9036908301610f40565b919095610d5a6111ec565b600654936001600160a01b039081861615610d73578780f35b1680946bffffffffffffffffffffffff60a01b16176006558211610efc5750610d9d6009546110f1565b601f8111610eab575b5083601f8211600114610e1857819085967fd15cf8df5e2d60ca581fa0aad07778c6cfbec8b2a1da625e52427b13b25dd1229692610e0d575b50508160011b916000199060031b1c1916176009555b8151908152336020820152a180388080808080808780f35b013590503880610ddf565b600985526000805160206116dc83398151915290601f198316865b818110610e935750968392916001947fd15cf8df5e2d60ca581fa0aad07778c6cfbec8b2a1da625e52427b13b25dd122989910610e79575b505050811b01600955610df5565b0135600019600384901b60f8161c19169055388080610e6b565b9192602060018192868c013581550194019201610e33565b600985526000805160206116dc833981519152601f830160051c81019160208410610ef2575b601f0160051c01905b818110610ee75750610da6565b858155600101610eda565b9091508190610ed1565b634e487b7160e01b855260419052602484fd5b600435906001600160a01b0382168203610f2557565b600080fd5b604435906001600160a01b0382168203610f2557565b9181601f84011215610f255782359167ffffffffffffffff8311610f255760208381860195010111610f2557565b60a0810190811067ffffffffffffffff821117610f8a57604052565b634e487b7160e01b600052604160045260246000fd5b6040810190811067ffffffffffffffff821117610f8a57604052565b90601f8019910116810190811067ffffffffffffffff821117610f8a57604052565b67ffffffffffffffff8111610f8a57601f01601f191660200190565b92919261100682610fde565b916110146040519384610fbc565b829481845281830111610f25578281602093846000960137010152565b9080601f83011215610f255781602061104c93359101610ffa565b90565b919082519283825260005b84811061107b575050826000602080949584010152601f8019910116010190565b60208183018101518483018201520161105a565b60c0600319820112610f25576001600160a01b036004358181168103610f2557926024358281168103610f255792604435926064359081168103610f2557916084359160a4359067ffffffffffffffff8211610f255761104c91600401611031565b90600182811c92168015611121575b602083101461110b57565b634e487b7160e01b600052602260045260246000fd5b91607f1691611100565b1561113257565b60405162461bcd60e51b815260206004820152600e60248201526d6e6f6e636520696e76616c69642160901b6044820152606490fd5b1561116f57565b60405162461bcd60e51b815260206004820152600d60248201526c7065726d6974206572726f722160981b6044820152606490fd5b90816020910312610f2557518015158103610f255790565b3d156111e7573d906111cd82610fde565b916111db6040519384610fbc565b82523d6000602084013e565b606090565b60005b60048110611236575b6004111561120257565b60405162461bcd60e51b815260206004820152600c60248201526b6f6e6c79206167656e74732160a01b6044820152606490fd5b60028101546001600160a01b03163314611252576001016111ef565b6111f8565b60429061126261127d565b906040519161190160f01b8352600283015260228201522090565b307f00000000000000000000000000000000000000000000000000000000000000006001600160a01b0316148061137f575b156112d8577f000000000000000000000000000000000000000000000000000000000000000090565b60405160208101907f8b73c3c69bb8fe3d512ecc4cf759cc79239f7b179b0ffacaa9a75d522b39400f82527f000000000000000000000000000000000000000000000000000000000000000060408201527f000000000000000000000000000000000000000000000000000000000000000060608201524660808201523060a082015260a0815260c0810181811067ffffffffffffffff821117610f8a5760405251902090565b507f000000000000000000000000000000000000000000000000000000000000000046146112af565b81519190604183036113d9576113d292506020820151906060604084015193015160001a9061162b565b9192909190565b505060009160029190565b600481101561145357806113f6575050565b600181036114105760405163f645eedf60e01b8152600490fd5b600281036114315760405163fce698f760e01b815260048101839052602490fd5b60031461143b5750565b602490604051906335e2f38360e21b82526004820152fd5b634e487b7160e01b600052602160045260246000fd5b60ff81146114a75760ff811690601f8211611495576040519161148b83610fa0565b8252602082015290565b604051632cd44ac360e21b8152600490fd5b50604051600081600054916114bb836110f1565b8083529260209060019081811690811561154657506001146114e6575b505061104c92500382610fbc565b915092600080527f290decd9548b62a8d60345a988386fc84ba6bc95484008f6362f93160ef3e563936000925b82841061152e575061104c94505050810160200138806114d8565b85548785018301529485019486945092810192611513565b9150506020925061104c94915060ff191682840152151560051b82010138806114d8565b60ff811461158c5760ff811690601f8211611495576040519161148b83610fa0565b506040516000816001916001546115a2816110f1565b808452936020916001811690811561154657506001146115ca57505061104c92500382610fbc565b91509260016000527fb10e2d527612073b26eecdfd717e6a320cf44b4afac2b0732d9fcbe2b7fa0cf6936000925b828410611613575061104c94505050810160200138806114d8565b855487850183015294850194869450928101926115f8565b91907f7fffffffffffffffffffffffffffffff5d576e7357a4501ddfe92f46681b20a084116116af57926020929160ff608095604051948552168484015260408301526060820152600092839182805260015afa156116a35780516001600160a01b0381161561169a57918190565b50809160019190565b604051903d90823e3d90fd5b5050506000916003919056fe2064f38e180b94f053ced20b3e46ad64ac4656e9697a6722232e4e3b24523bfd6e1540171b6c0c960b71a7020d9f60077f6af931a8bbf590da0223dacf75c7afa26469706673582212203fc2d95002089f6d709022659f3532edab1fce2207327747d81ffe7ef1a7883264736f6c63430008190033",
    "linkReferences": {}
  },
  "methodIdentifiers": {
    "accountImpl()": "8804eb9f",
    "execute(uint256,bytes,uint256)": "ca726058",
    "initPoint(address)": "34e3fac3",
    "newAccount(uint256,address,string)": "c4dab887",
    "owners(uint256)": "025e7c27",
    "queryAccount(uint256)": "e31a20ac"
  },
  "id": 37
}